{
  "transactions": [
    {
      "hash": "0xa6835c6ffbf014ef0b2f154608b81d8b35a40929d551c30998d8a4ef9c9f23e6",
      "transactionType": "CALL",
      "contractName": null,
      "contractAddress": "0x779877a7b0d9e8603169ddbd7836e478b4624789",
      "function": "transferAndCall(address,uint256,bytes)",
      "arguments": [
        "0x9DdfaCa8183c41ad55329BdeeD9F6A8d53168B1B",
        "3000000000000000000",
        "0x3cd9e1cdd792252183bb6fb4d1bb22a589d1ed04958c046e935736ce730b5991"
      ],
      "transaction": {
        "from": "0x1b57ffa52a46b2843cd5464f2be3abddca610667",
        "to": "0x779877a7b0d9e8603169ddbd7836e478b4624789",
        "gas": "0x1c1ff",
        "value": "0x0",
        "input": "0x4000aea00000000000000000000000009ddfaca8183c41ad55329bdeed9f6a8d53168b1b00000000000000000000000000000000000000000000000029a2241af62c0000000000000000000000000000000000000000000000000000000000000000006000000000000000000000000000000000000000000000000000000000000000203cd9e1cdd792252183bb6fb4d1bb22a589d1ed04958c046e935736ce730b5991",
        "nonce": "0xe",
        "chainId": "0xaa36a7"
      },
      "additionalContracts": [],
      "isFixedGasLimit": false
    }
  ],
  "receipts": [
    {
      "status": "0x1",
      "cumulativeGasUsed": "0x1526fba",
      "logs": [
        {
          "address": "0x779877a7b0d9e8603169ddbd7836e478b4624789",
          "topics": [
            "0xddf252ad1be2c89b69c2b068fc378daa952ba7f163c4a11628f55a4df523b3ef",
            "0x0000000000000000000000001b57ffa52a46b2843cd5464f2be3abddca610667",
            "0x0000000000000000000000009ddfaca8183c41ad55329bdeed9f6a8d53168b1b"
          ],
          "data": "0x00000000000000000000000000000000000000000000000029a2241af62c0000",
          "blockHash": "0x43f6478e96717e9c7443c40198a9ca7867e8eb4497e39ca7a909d01f60b3b77a",
          "blockNumber": "0x67af69",
          "transactionHash": "0xa6835c6ffbf014ef0b2f154608b81d8b35a40929d551c30998d8a4ef9c9f23e6",
          "transactionIndex": "0x7f",
          "logIndex": "0xe1",
          "removed": false
        },
        {
          "address": "0x779877a7b0d9e8603169ddbd7836e478b4624789",
          "topics": [
            "0xe19260aff97b920c7df27010903aeb9c8d2be5d310a2c67824cf3f15396e4c16",
            "0x0000000000000000000000001b57ffa52a46b2843cd5464f2be3abddca610667",
            "0x0000000000000000000000009ddfaca8183c41ad55329bdeed9f6a8d53168b1b"
          ],
          "data": "0x00000000000000000000000000000000000000000000000029a2241af62c0000000000000000000000000000000000000000000000000000000000000000004000000000000000000000000000000000000000000000000000000000000000203cd9e1cdd792252183bb6fb4d1bb22a589d1ed04958c046e935736ce730b5991",
          "blockHash": "0x43f6478e96717e9c7443c40198a9ca7867e8eb4497e39ca7a909d01f60b3b77a",
          "blockNumber": "0x67af69",
          "transactionHash": "0xa6835c6ffbf014ef0b2f154608b81d8b35a40929d551c30998d8a4ef9c9f23e6",
          "transactionIndex": "0x7f",
          "logIndex": "0xe2",
          "removed": false
        },
        {
          "address": "0x9ddfaca8183c41ad55329bdeed9f6a8d53168b1b",
          "topics": [
            "0x1ced9348ff549fceab2ac57cd3a9de38edaaab274b725ee82c23e8fc8c4eec7a",
            "0x3cd9e1cdd792252183bb6fb4d1bb22a589d1ed04958c046e935736ce730b5991"
          ],
          "data": "0x000000000000000000000000000000000000000000000000000000000000000000000000000000000000000000000000000000000000000029a2241af62c0000",
          "blockHash": "0x43f6478e96717e9c7443c40198a9ca7867e8eb4497e39ca7a909d01f60b3b77a",
          "blockNumber": "0x67af69",
          "transactionHash": "0xa6835c6ffbf014ef0b2f154608b81d8b35a40929d551c30998d8a4ef9c9f23e6",
          "transactionIndex": "0x7f",
          "logIndex": "0xe3",
          "removed": false
        }
      ],
      "logsBloom": "0x00000004000000200000000000000020000000000020000000000000020000000000000000000000000000080000000000000000000000000000000000000000000000000000000000000008000000000000000000000000000020000020000008000000000000000000000000000000000000000000000000000010000040000000000000000000000000010000800000000020000000000000000000000000000000000000000000000000010000000000000000000000000004000000000000000002000000000000000000000000000000000000000100000000000000000010000100000000810000000000000000000000000000000000400000000000",
      "type": "0x2",
      "transactionHash": "0xa6835c6ffbf014ef0b2f154608b81d8b35a40929d551c30998d8a4ef9c9f23e6",
      "transactionIndex": "0x7f",
      "blockHash": "0x43f6478e96717e9c7443c40198a9ca7867e8eb4497e39ca7a909d01f60b3b77a",
      "blockNumber": "0x67af69",
      "gasUsed": "0x133b1",
      "effectiveGasPrice": "0x236021bd6d",
      "from": "0x1b57ffa52a46b2843cd5464f2be3abddca610667",
      "to": "0x779877a7b0d9e8603169ddbd7836e478b4624789",
      "contractAddress": null
    }
  ],
  "libraries": [],
  "pending": [],
  "returns": {},
  "timestamp": 1727799378,
  "chain": 11155111,
  "commit": "df47e5f"
}